{
  "contractName": "PriorIncidents",
  "abi": [
    {
      "constant": true,
      "inputs": [
        {
          "name": "",
          "type": "uint256"
        }
      ],
      "name": "companies",
      "outputs": [
        {
          "name": "",
          "type": "string"
        }
      ],
      "payable": false,
      "stateMutability": "view",
      "type": "function"
    },
    {
      "constant": false,
      "inputs": [],
      "name": "renounceOwnership",
      "outputs": [],
      "payable": false,
      "stateMutability": "nonpayable",
      "type": "function"
    },
    {
      "constant": true,
      "inputs": [],
      "name": "owner",
      "outputs": [
        {
          "name": "",
          "type": "address"
        }
      ],
      "payable": false,
      "stateMutability": "view",
      "type": "function"
    },
    {
      "constant": true,
      "inputs": [],
      "name": "isOwner",
      "outputs": [
        {
          "name": "",
          "type": "bool"
        }
      ],
      "payable": false,
      "stateMutability": "view",
      "type": "function"
    },
    {
      "constant": true,
      "inputs": [
        {
          "name": "",
          "type": "uint256"
        }
      ],
      "name": "priorIncidents",
      "outputs": [
        {
          "name": "date",
          "type": "string"
        },
        {
          "name": "fallType",
          "type": "string"
        },
        {
          "name": "attorneyName",
          "type": "string"
        }
      ],
      "payable": false,
      "stateMutability": "view",
      "type": "function"
    },
    {
      "constant": true,
      "inputs": [
        {
          "name": "",
          "type": "uint256"
        }
      ],
      "name": "locations",
      "outputs": [
        {
          "name": "streetNumber",
          "type": "string"
        },
        {
          "name": "street",
          "type": "string"
        },
        {
          "name": "city",
          "type": "string"
        },
        {
          "name": "state",
          "type": "string"
        },
        {
          "name": "zipCode",
          "type": "string"
        },
        {
          "name": "storeNumber",
          "type": "string"
        }
      ],
      "payable": false,
      "stateMutability": "view",
      "type": "function"
    },
    {
      "constant": false,
      "inputs": [
        {
          "name": "newOwner",
          "type": "address"
        }
      ],
      "name": "transferOwnership",
      "outputs": [],
      "payable": false,
      "stateMutability": "nonpayable",
      "type": "function"
    },
    {
      "constant": true,
      "inputs": [
        {
          "name": "",
          "type": "uint256"
        }
      ],
      "name": "listCompanies",
      "outputs": [
        {
          "name": "",
          "type": "string"
        }
      ],
      "payable": false,
      "stateMutability": "view",
      "type": "function"
    },
    {
      "anonymous": false,
      "inputs": [
        {
          "indexed": false,
          "name": "name",
          "type": "string"
        },
        {
          "indexed": false,
          "name": "id",
          "type": "uint256"
        }
      ],
      "name": "createdCompany",
      "type": "event"
    },
    {
      "anonymous": false,
      "inputs": [
        {
          "indexed": false,
          "name": "streetNumber",
          "type": "string"
        },
        {
          "indexed": false,
          "name": "street",
          "type": "string"
        },
        {
          "indexed": false,
          "name": "city",
          "type": "string"
        },
        {
          "indexed": false,
          "name": "state",
          "type": "string"
        },
        {
          "indexed": false,
          "name": "zipCode",
          "type": "string"
        },
        {
          "indexed": false,
          "name": "storeNumber",
          "type": "string"
        },
        {
          "indexed": false,
          "name": "companyId",
          "type": "uint256"
        },
        {
          "indexed": false,
          "name": "id",
          "type": "uint256"
        }
      ],
      "name": "createdLocation",
      "type": "event"
    },
    {
      "anonymous": false,
      "inputs": [
        {
          "indexed": false,
          "name": "date",
          "type": "string"
        },
        {
          "indexed": false,
          "name": "fallType",
          "type": "string"
        },
        {
          "indexed": false,
          "name": "attorneyName",
          "type": "string"
        },
        {
          "indexed": false,
          "name": "locationId",
          "type": "uint256"
        },
        {
          "indexed": false,
          "name": "id",
          "type": "uint256"
        }
      ],
      "name": "createdPriorIncident",
      "type": "event"
    },
    {
      "anonymous": false,
      "inputs": [
        {
          "indexed": true,
          "name": "previousOwner",
          "type": "address"
        },
        {
          "indexed": true,
          "name": "newOwner",
          "type": "address"
        }
      ],
      "name": "OwnershipTransferred",
      "type": "event"
    },
    {
      "constant": false,
      "inputs": [
        {
          "name": "_name",
          "type": "string"
        }
      ],
      "name": "createCompany",
      "outputs": [],
      "payable": false,
      "stateMutability": "nonpayable",
      "type": "function"
    },
    {
      "constant": false,
      "inputs": [
        {
          "name": "_streetNumber",
          "type": "string"
        },
        {
          "name": "_street",
          "type": "string"
        },
        {
          "name": "_city",
          "type": "string"
        },
        {
          "name": "_state",
          "type": "string"
        },
        {
          "name": "_zipCode",
          "type": "string"
        },
        {
          "name": "_storeNumber",
          "type": "string"
        },
        {
          "name": "_companyId",
          "type": "uint256"
        }
      ],
      "name": "createLocation",
      "outputs": [],
      "payable": false,
      "stateMutability": "nonpayable",
      "type": "function"
    },
    {
      "constant": false,
      "inputs": [
        {
          "name": "_date",
          "type": "string"
        },
        {
          "name": "_fallType",
          "type": "string"
        },
        {
          "name": "_attorneyName",
          "type": "string"
        },
        {
          "name": "_locationId",
          "type": "uint256"
        }
      ],
      "name": "createPriorIncident",
      "outputs": [],
      "payable": false,
      "stateMutability": "nonpayable",
      "type": "function"
    },
    {
      "constant": true,
      "inputs": [
        {
          "name": "_companyId",
          "type": "uint256"
        }
      ],
      "name": "getLocationsByCompany",
      "outputs": [
        {
          "name": "",
          "type": "uint256[]"
        }
      ],
      "payable": false,
      "stateMutability": "view",
      "type": "function"
    },
    {
      "constant": true,
      "inputs": [
        {
          "name": "_locationId",
          "type": "uint256"
        }
      ],
      "name": "getPriorIncidentsByLocation",
      "outputs": [
        {
          "name": "",
          "type": "uint256[]"
        }
      ],
      "payable": false,
      "stateMutability": "view",
      "type": "function"
    },
    {
      "constant": true,
      "inputs": [
        {
          "name": "_companyId",
          "type": "uint256"
        }
      ],
      "name": "getPriorIncidentsByCompany",
      "outputs": [
        {
          "name": "",
          "type": "uint256[]"
        }
      ],
      "payable": false,
      "stateMutability": "view",
      "type": "function"
    },
    {
      "constant": true,
      "inputs": [],
      "name": "getLocations",
      "outputs": [
        {
          "components": [
            {
              "name": "streetNumber",
              "type": "string"
            },
            {
              "name": "street",
              "type": "string"
            },
            {
              "name": "city",
              "type": "string"
            },
            {
              "name": "state",
              "type": "string"
            },
            {
              "name": "zipCode",
              "type": "string"
            },
            {
              "name": "storeNumber",
              "type": "string"
            }
          ],
          "name": "",
          "type": "tuple[]"
        }
      ],
      "payable": false,
      "stateMutability": "view",
      "type": "function"
    },
    {
      "constant": true,
      "inputs": [
        {
          "name": "_companyId",
          "type": "uint256"
        }
      ],
      "name": "getCompanyLocationCount",
      "outputs": [
        {
          "name": "",
          "type": "uint256"
        }
      ],
      "payable": false,
      "stateMutability": "view",
      "type": "function"
    },
    {
      "constant": true,
      "inputs": [
        {
          "name": "_locationId",
          "type": "uint256"
        }
      ],
      "name": "getLocationByIndex",
      "outputs": [
        {
          "components": [
            {
              "name": "streetNumber",
              "type": "string"
            },
            {
              "name": "street",
              "type": "string"
            },
            {
              "name": "city",
              "type": "string"
            },
            {
              "name": "state",
              "type": "string"
            },
            {
              "name": "zipCode",
              "type": "string"
            },
            {
              "name": "storeNumber",
              "type": "string"
            }
          ],
          "name": "",
          "type": "tuple"
        }
      ],
      "payable": false,
      "stateMutability": "view",
      "type": "function"
    },
    {
      "constant": true,
      "inputs": [
        {
          "name": "_companyId",
          "type": "uint256"
        }
      ],
      "name": "getNumIncidentsByCompany",
      "outputs": [
        {
          "name": "",
          "type": "uint256"
        }
      ],
      "payable": false,
      "stateMutability": "view",
      "type": "function"
    },
    {
      "constant": true,
      "inputs": [
        {
          "name": "_locationId",
          "type": "uint256"
        }
      ],
      "name": "getNumIncidentsByLocation",
      "outputs": [
        {
          "name": "",
          "type": "uint256"
        }
      ],
      "payable": false,
      "stateMutability": "view",
      "type": "function"
    },
    {
      "constant": true,
      "inputs": [
        {
          "name": "_incidentId",
          "type": "uint256"
        }
      ],
      "name": "getLocationByIncident",
      "outputs": [
        {
          "name": "",
          "type": "uint256"
        }
      ],
      "payable": false,
      "stateMutability": "view",
      "type": "function"
    },
    {
      "constant": true,
      "inputs": [
        {
          "name": "_incidentId",
          "type": "uint256"
        }
      ],
      "name": "getPriorIncidentByIndex",
      "outputs": [
        {
          "components": [
            {
              "name": "date",
              "type": "string"
            },
            {
              "name": "fallType",
              "type": "string"
            },
            {
              "name": "attorneyName",
              "type": "string"
            }
          ],
          "name": "",
          "type": "tuple"
        }
      ],
      "payable": false,
      "stateMutability": "view",
      "type": "function"
    },
    {
      "constant": true,
      "inputs": [],
      "name": "listAllCompanies",
      "outputs": [
        {
          "name": "",
          "type": "string[]"
        }
      ],
      "payable": false,
      "stateMutability": "view",
      "type": "function"
    },
    {
      "constant": true,
      "inputs": [
        {
          "name": "_companyId",
          "type": "uint256"
        }
      ],
      "name": "getCompany",
      "outputs": [
        {
          "name": "",
          "type": "string"
        }
      ],
      "payable": false,
      "stateMutability": "view",
      "type": "function"
    },
    {
      "constant": true,
      "inputs": [
        {
          "name": "_incidentId",
          "type": "uint256"
        }
      ],
      "name": "getCompanyByPriorIncident",
      "outputs": [
        {
          "name": "",
          "type": "string"
        }
      ],
      "payable": false,
      "stateMutability": "view",
      "type": "function"
    },
    {
      "constant": true,
      "inputs": [
        {
          "name": "_incidentId",
          "type": "uint256"
        }
      ],
      "name": "getLocationByPriorIncident",
      "outputs": [
        {
          "components": [
            {
              "name": "streetNumber",
              "type": "string"
            },
            {
              "name": "street",
              "type": "string"
            },
            {
              "name": "city",
              "type": "string"
            },
            {
              "name": "state",
              "type": "string"
            },
            {
              "name": "zipCode",
              "type": "string"
            },
            {
              "name": "storeNumber",
              "type": "string"
            }
          ],
          "name": "",
          "type": "tuple"
        }
      ],
      "payable": false,
      "stateMutability": "view",
      "type": "function"
    }
  ],
  "bytecode": "0x6080604052600061001d6100c0640100000000026401000000009004565b9050806000806101000a81548173ffffffffffffffffffffffffffffffffffffffff021916908373ffffffffffffffffffffffffffffffffffffffff1602179055508073ffffffffffffffffffffffffffffffffffffffff16600073ffffffffffffffffffffffffffffffffffffffff167f8be0079c531659141344cd1fd0a4f28419497f9722a3daafe3b4186f6b6457e060405160405180910390a3506100c8565b600033905090565b61364e80620000d86000396000f3fe608060405234801561001057600080fd5b5060043610610190576000357c010000000000000000000000000000000000000000000000000000000090048063715018a6116100fb578063ab63616f116100b4578063d4814be91161008e578063d4814be91461050a578063f2fde38b14610526578063f956de9114610542578063fd7f611e1461057257610190565b8063ab63616f14610485578063b90e5223146104a3578063b9e0db35146104d557610190565b8063715018a6146103af5780638802c8b2146103b95780638da5cb5b146103e95780638f32d59b1461040757806390a6ff5e1461042557806391c5cbf51461045557610190565b806356ad8d951161014d57806356ad8d95146102a357806356c6ffc1146102d3578063578b2b431461030357806357d13917146103335780635e76340514610363578063609faa8b1461037f57610190565b80630478e1fa1461019557806318125342146101c557806321ef0163146101f55780632813d19d146102135780632f49dc1214610243578063448c262d14610273575b600080fd5b6101af60048036036101aa9190810190612c4f565b61058e565b6040516101bc9190613464565b60405180910390f35b6101df60048036036101da9190810190612c4f565b6105ab565b6040516101ec9190613464565b60405180910390f35b6101fd6105c8565b60405161020a91906130e4565b60405180910390f35b61022d60048036036102289190810190612c4f565b6106b1565b60405161023a9190613165565b60405180910390f35b61025d60048036036102589190810190612c4f565b610761565b60405161026a9190613128565b60405180910390f35b61028d60048036036102889190810190612c4f565b61083b565b60405161029a9190613420565b60405180910390f35b6102bd60048036036102b89190810190612c4f565b610c58565b6040516102ca9190613420565b60405180910390f35b6102ed60048036036102e89190810190612c4f565b61105c565b6040516102fa9190613128565b60405180910390f35b61031d60048036036103189190810190612c4f565b611123565b60405161032a9190613464565b60405180910390f35b61034d60048036036103489190810190612c4f565b611140565b60405161035a9190613187565b60405180910390f35b61037d60048036036103789190810190612ba4565b6111fb565b005b61039960048036036103949190810190612c4f565b611396565b6040516103a69190613187565b60405180910390f35b6103b7611477565b005b6103d360048036036103ce9190810190612c4f565b61157f565b6040516103e09190613442565b60405180910390f35b6103f161179d565b6040516103fe91906130c9565b60405180910390f35b61040f6117c6565b60405161041c919061314a565b60405180910390f35b61043f600480360361043a9190810190612c4f565b611824565b60405161044c9190613464565b60405180910390f35b61046f600480360361046a9190810190612c4f565b611841565b60405161047c9190613128565b60405180910390f35b61048d611908565b60405161049a9190613106565b60405180910390f35b6104bd60048036036104b89190810190612c4f565b611d34565b6040516104cc939291906132e9565b60405180910390f35b6104ef60048036036104ea9190810190612c4f565b611f35565b60405161050196959493929190613335565b60405180910390f35b610524600480360361051f9190810190612a76565b612310565b005b610540600480360361053b9190810190612a0c565b6124c7565b005b61055c60048036036105579190810190612c4f565b61251c565b6040516105699190613165565b60405180910390f35b61058c60048036036105879190810190612a35565b6125d7565b005b600060056000838152602001908152602001600020549050919050565b600060066000838152602001908152602001600020549050919050565b60606003805480602002602001604051908101604052809291908181526020016000905b828210156106a8578382906000526020600020018054600181600116156101000203166002900480601f0160208091040260200160405190810160405280929190818152602001828054600181600116156101000203166002900480156106945780601f1061066957610100808354040283529160200191610694565b820191906000526020600020905b81548152906001019060200180831161067757829003601f168201915b5050505050815260200190600101906105ec565b50505050905090565b60046020528060005260406000206000915090508054600181600116156101000203166002900480601f0160208091040260200160405190810160405280929190818152602001828054600181600116156101000203166002900480156107595780601f1061072e57610100808354040283529160200191610759565b820191906000526020600020905b81548152906001019060200180831161073c57829003601f168201915b505050505081565b60608060066000848152602001908152602001600020546040519080825280602002602001820160405280156107a65781602001602082028038833980820191505090505b509050600080905060008090505b60018054905081101561083057846008600060076000858152602001908152602001600020548152602001908152602001600020541415610823578083838151811015156107fe57fe5b906020019060200201818152505061082060018361268190919063ffffffff16565b91505b80806001019150506107b4565b508192505050919050565b610843612810565b60006007600084815260200190815260200160002054905060028181548110151561086a57fe5b906000526020600020906006020160c06040519081016040529081600082018054600181600116156101000203166002900480601f01602080910402602001604051908101604052809291908181526020018280546001816001161561010002031660029004801561091d5780601f106108f25761010080835404028352916020019161091d565b820191906000526020600020905b81548152906001019060200180831161090057829003601f168201915b50505050508152602001600182018054600181600116156101000203166002900480601f0160208091040260200160405190810160405280929190818152602001828054600181600116156101000203166002900480156109bf5780601f10610994576101008083540402835291602001916109bf565b820191906000526020600020905b8154815290600101906020018083116109a257829003601f168201915b50505050508152602001600282018054600181600116156101000203166002900480601f016020809104026020016040519081016040528092919081815260200182805460018160011615610100020316600290048015610a615780601f10610a3657610100808354040283529160200191610a61565b820191906000526020600020905b815481529060010190602001808311610a4457829003601f168201915b50505050508152602001600382018054600181600116156101000203166002900480601f016020809104026020016040519081016040528092919081815260200182805460018160011615610100020316600290048015610b035780601f10610ad857610100808354040283529160200191610b03565b820191906000526020600020905b815481529060010190602001808311610ae657829003601f168201915b50505050508152602001600482018054600181600116156101000203166002900480601f016020809104026020016040519081016040528092919081815260200182805460018160011615610100020316600290048015610ba55780601f10610b7a57610100808354040283529160200191610ba5565b820191906000526020600020905b815481529060010190602001808311610b8857829003601f168201915b50505050508152602001600582018054600181600116156101000203166002900480601f016020809104026020016040519081016040528092919081815260200182805460018160011615610100020316600290048015610c475780601f10610c1c57610100808354040283529160200191610c47565b820191906000526020600020905b815481529060010190602001808311610c2a57829003601f168201915b505050505081525050915050919050565b610c60612810565b600282815481101515610c6f57fe5b906000526020600020906006020160c06040519081016040529081600082018054600181600116156101000203166002900480601f016020809104026020016040519081016040528092919081815260200182805460018160011615610100020316600290048015610d225780601f10610cf757610100808354040283529160200191610d22565b820191906000526020600020905b815481529060010190602001808311610d0557829003601f168201915b50505050508152602001600182018054600181600116156101000203166002900480601f016020809104026020016040519081016040528092919081815260200182805460018160011615610100020316600290048015610dc45780601f10610d9957610100808354040283529160200191610dc4565b820191906000526020600020905b815481529060010190602001808311610da757829003601f168201915b50505050508152602001600282018054600181600116156101000203166002900480601f016020809104026020016040519081016040528092919081815260200182805460018160011615610100020316600290048015610e665780601f10610e3b57610100808354040283529160200191610e66565b820191906000526020600020905b815481529060010190602001808311610e4957829003601f168201915b50505050508152602001600382018054600181600116156101000203166002900480601f016020809104026020016040519081016040528092919081815260200182805460018160011615610100020316600290048015610f085780601f10610edd57610100808354040283529160200191610f08565b820191906000526020600020905b815481529060010190602001808311610eeb57829003601f168201915b50505050508152602001600482018054600181600116156101000203166002900480601f016020809104026020016040519081016040528092919081815260200182805460018160011615610100020316600290048015610faa5780601f10610f7f57610100808354040283529160200191610faa565b820191906000526020600020905b815481529060010190602001808311610f8d57829003601f168201915b50505050508152602001600582018054600181600116156101000203166002900480601f01602080910402602001604051908101604052809291908181526020018280546001816001161561010002031660029004801561104c5780601f106110215761010080835404028352916020019161104c565b820191906000526020600020905b81548152906001019060200180831161102f57829003601f168201915b5050505050815250509050919050565b60608060096000848152602001908152602001600020546040519080825280602002602001820160405280156110a15781602001602082028038833980820191505090505b509050600080905060008090505b60018054905081101561111857846007600083815260200190815260200160002054141561110b578083838151811015156110e657fe5b906020019060200201818152505061110860018361268190919063ffffffff16565b91505b80806001019150506110af565b508192505050919050565b600060076000838152602001908152602001600020549050919050565b606060038281548110151561115157fe5b906000526020600020018054600181600116156101000203166002900480601f0160208091040260200160405190810160405280929190818152602001828054600181600116156101000203166002900480156111ef5780601f106111c4576101008083540402835291602001916111ef565b820191906000526020600020905b8154815290600101906020018083116111d257829003601f168201915b50505050509050919050565b600060018060606040519081016040528088815260200187815260200186815250908060018154018082558091505090600182039060005260206000209060030201600090919290919091506000820151816000019080519060200190611263929190612847565b506020820151816001019080519060200190611280929190612847565b50604082015181600201908051906020019061129d929190612847565b5050500390506000600860008481526020019081526020016000205490506112e26001600660008481526020019081526020016000205461268190919063ffffffff16565b60066000838152602001908152602001600020819055508260076000848152602001908152602001600020819055506113386001600960008681526020019081526020016000205461268190919063ffffffff16565b60096000858152602001908152602001600020819055507fd61eb1e03bf677e5b603e643cc2bf445594d760aedf3666121b6dd0995b5ed918686868686604051611386959493929190613251565b60405180910390a1505050505050565b606060006007600084815260200190815260200160002054905060046000600860008481526020019081526020016000205481526020019081526020016000208054600181600116156101000203166002900480601f01602080910402602001604051908101604052809291908181526020018280546001816001161561010002031660029004801561146a5780601f1061143f5761010080835404028352916020019161146a565b820191906000526020600020905b81548152906001019060200180831161144d57829003601f168201915b5050505050915050919050565b61147f6117c6565b15156114c0576040517f08c379a00000000000000000000000000000000000000000000000000000000081526004016114b790613400565b60405180910390fd5b600073ffffffffffffffffffffffffffffffffffffffff166000809054906101000a900473ffffffffffffffffffffffffffffffffffffffff1673ffffffffffffffffffffffffffffffffffffffff167f8be0079c531659141344cd1fd0a4f28419497f9722a3daafe3b4186f6b6457e060405160405180910390a360008060006101000a81548173ffffffffffffffffffffffffffffffffffffffff021916908373ffffffffffffffffffffffffffffffffffffffff160217905550565b6115876128c7565b60018281548110151561159657fe5b906000526020600020906003020160606040519081016040529081600082018054600181600116156101000203166002900480601f0160208091040260200160405190810160405280929190818152602001828054600181600116156101000203166002900480156116495780601f1061161e57610100808354040283529160200191611649565b820191906000526020600020905b81548152906001019060200180831161162c57829003601f168201915b50505050508152602001600182018054600181600116156101000203166002900480601f0160208091040260200160405190810160405280929190818152602001828054600181600116156101000203166002900480156116eb5780601f106116c0576101008083540402835291602001916116eb565b820191906000526020600020905b8154815290600101906020018083116116ce57829003601f168201915b50505050508152602001600282018054600181600116156101000203166002900480601f01602080910402602001604051908101604052809291908181526020018280546001816001161561010002031660029004801561178d5780601f106117625761010080835404028352916020019161178d565b820191906000526020600020905b81548152906001019060200180831161177057829003601f168201915b5050505050815250509050919050565b60008060009054906101000a900473ffffffffffffffffffffffffffffffffffffffff16905090565b60008060009054906101000a900473ffffffffffffffffffffffffffffffffffffffff1673ffffffffffffffffffffffffffffffffffffffff166118086126d8565b73ffffffffffffffffffffffffffffffffffffffff1614905090565b600060096000838152602001908152602001600020549050919050565b60608060056000848152602001908152602001600020546040519080825280602002602001820160405280156118865781602001602082028038833980820191505090505b509050600080905060008090505b6002805490508110156118fd5784600860008381526020019081526020016000205414156118f0578083838151811015156118cb57fe5b90602001906020020181815250506118ed60018361268190919063ffffffff16565b91505b8080600101915050611894565b508192505050919050565b60606002805480602002602001604051908101604052809291908181526020016000905b82821015611d2b578382906000526020600020906006020160c06040519081016040529081600082018054600181600116156101000203166002900480601f0160208091040260200160405190810160405280929190818152602001828054600181600116156101000203166002900480156119e95780601f106119be576101008083540402835291602001916119e9565b820191906000526020600020905b8154815290600101906020018083116119cc57829003601f168201915b50505050508152602001600182018054600181600116156101000203166002900480601f016020809104026020016040519081016040528092919081815260200182805460018160011615610100020316600290048015611a8b5780601f10611a6057610100808354040283529160200191611a8b565b820191906000526020600020905b815481529060010190602001808311611a6e57829003601f168201915b50505050508152602001600282018054600181600116156101000203166002900480601f016020809104026020016040519081016040528092919081815260200182805460018160011615610100020316600290048015611b2d5780601f10611b0257610100808354040283529160200191611b2d565b820191906000526020600020905b815481529060010190602001808311611b1057829003601f168201915b50505050508152602001600382018054600181600116156101000203166002900480601f016020809104026020016040519081016040528092919081815260200182805460018160011615610100020316600290048015611bcf5780601f10611ba457610100808354040283529160200191611bcf565b820191906000526020600020905b815481529060010190602001808311611bb257829003601f168201915b50505050508152602001600482018054600181600116156101000203166002900480601f016020809104026020016040519081016040528092919081815260200182805460018160011615610100020316600290048015611c715780601f10611c4657610100808354040283529160200191611c71565b820191906000526020600020905b815481529060010190602001808311611c5457829003601f168201915b50505050508152602001600582018054600181600116156101000203166002900480601f016020809104026020016040519081016040528092919081815260200182805460018160011615610100020316600290048015611d135780601f10611ce857610100808354040283529160200191611d13565b820191906000526020600020905b815481529060010190602001808311611cf657829003601f168201915b5050505050815250508152602001906001019061192c565b50505050905090565b600181815481101515611d4357fe5b9060005260206000209060030201600091509050806000018054600181600116156101000203166002900480601f016020809104026020016040519081016040528092919081815260200182805460018160011615610100020316600290048015611def5780601f10611dc457610100808354040283529160200191611def565b820191906000526020600020905b815481529060010190602001808311611dd257829003601f168201915b505050505090806001018054600181600116156101000203166002900480601f016020809104026020016040519081016040528092919081815260200182805460018160011615610100020316600290048015611e8d5780601f10611e6257610100808354040283529160200191611e8d565b820191906000526020600020905b815481529060010190602001808311611e7057829003601f168201915b505050505090806002018054600181600116156101000203166002900480601f016020809104026020016040519081016040528092919081815260200182805460018160011615610100020316600290048015611f2b5780601f10611f0057610100808354040283529160200191611f2b565b820191906000526020600020905b815481529060010190602001808311611f0e57829003601f168201915b5050505050905083565b600281815481101515611f4457fe5b9060005260206000209060060201600091509050806000018054600181600116156101000203166002900480601f016020809104026020016040519081016040528092919081815260200182805460018160011615610100020316600290048015611ff05780601f10611fc557610100808354040283529160200191611ff0565b820191906000526020600020905b815481529060010190602001808311611fd357829003601f168201915b505050505090806001018054600181600116156101000203166002900480601f01602080910402602001604051908101604052809291908181526020018280546001816001161561010002031660029004801561208e5780601f106120635761010080835404028352916020019161208e565b820191906000526020600020905b81548152906001019060200180831161207157829003601f168201915b505050505090806002018054600181600116156101000203166002900480601f01602080910402602001604051908101604052809291908181526020018280546001816001161561010002031660029004801561212c5780601f106121015761010080835404028352916020019161212c565b820191906000526020600020905b81548152906001019060200180831161210f57829003601f168201915b505050505090806003018054600181600116156101000203166002900480601f0160208091040260200160405190810160405280929190818152602001828054600181600116156101000203166002900480156121ca5780601f1061219f576101008083540402835291602001916121ca565b820191906000526020600020905b8154815290600101906020018083116121ad57829003601f168201915b505050505090806004018054600181600116156101000203166002900480601f0160208091040260200160405190810160405280929190818152602001828054600181600116156101000203166002900480156122685780601f1061223d57610100808354040283529160200191612268565b820191906000526020600020905b81548152906001019060200180831161224b57829003601f168201915b505050505090806005018054600181600116156101000203166002900480601f0160208091040260200160405190810160405280929190818152602001828054600181600116156101000203166002900480156123065780601f106122db57610100808354040283529160200191612306565b820191906000526020600020905b8154815290600101906020018083116122e957829003601f168201915b5050505050905086565b60006001600260c0604051908101604052808b81526020018a81526020018981526020018881526020018781526020018681525090806001815401808255809150509060018203906000526020600020906006020160009091929091909150600082015181600001908051906020019061238b929190612847565b5060208201518160010190805190602001906123a8929190612847565b5060408201518160020190805190602001906123c5929190612847565b5060608201518160030190805190602001906123e2929190612847565b5060808201518160040190805190602001906123ff929190612847565b5060a082015181600501908051906020019061241c929190612847565b5050500390506124496001600560008581526020019081526020016000205461268190919063ffffffff16565b60056000848152602001908152602001600020819055508160086000838152602001908152602001600020819055507fc994f5de3a8bb417a1588e52ac6432308c5138d9de973b47634589a9c3f5813088888888888888886040516124b59897969594939291906131a9565b60405180910390a15050505050505050565b6124cf6117c6565b1515612510576040517f08c379a000000000000000000000000000000000000000000000000000000000815260040161250790613400565b60405180910390fd5b612519816126e0565b50565b60038181548110151561252b57fe5b906000526020600020016000915090508054600181600116156101000203166002900480601f0160208091040260200160405190810160405280929190818152602001828054600181600116156101000203166002900480156125cf5780601f106125a4576101008083540402835291602001916125cf565b820191906000526020600020905b8154815290600101906020018083116125b257829003601f168201915b505050505081565b6000600160038390806001815401808255809150509060018203906000526020600020016000909192909190915090805190602001906126189291906128e9565b50039050816004600083815260200190815260200160002090805190602001906126439291906128e9565b507f4809ef4e5159d313dc345c4e466eef6a710fa6f5c3f4a0a53eb66df081e5f14f82826040516126759291906132b9565b60405180910390a15050565b60008082840190508381101515156126ce576040517f08c379a00000000000000000000000000000000000000000000000000000000081526004016126c5906133e0565b60405180910390fd5b8091505092915050565b600033905090565b600073ffffffffffffffffffffffffffffffffffffffff168173ffffffffffffffffffffffffffffffffffffffff1614151515612752576040517f08c379a0000000000000000000000000000000000000000000000000000000008152600401612749906133c0565b60405180910390fd5b8073ffffffffffffffffffffffffffffffffffffffff166000809054906101000a900473ffffffffffffffffffffffffffffffffffffffff1673ffffffffffffffffffffffffffffffffffffffff167f8be0079c531659141344cd1fd0a4f28419497f9722a3daafe3b4186f6b6457e060405160405180910390a3806000806101000a81548173ffffffffffffffffffffffffffffffffffffffff021916908373ffffffffffffffffffffffffffffffffffffffff16021790555050565b60c0604051908101604052806060815260200160608152602001606081526020016060815260200160608152602001606081525090565b828054600181600116156101000203166002900490600052602060002090601f016020900481019282601f1061288857805160ff19168380011785556128b6565b828001600101855582156128b6579182015b828111156128b557825182559160200191906001019061289a565b5b5090506128c39190612969565b5090565b6060604051908101604052806060815260200160608152602001606081525090565b828054600181600116156101000203166002900490600052602060002090601f016020900481019282601f1061292a57805160ff1916838001178555612958565b82800160010185558215612958579182015b8281111561295757825182559160200191906001019061293c565b5b5090506129659190612969565b5090565b61298b91905b8082111561298757600081600090555060010161296f565b5090565b90565b600061299a82356135a5565b905092915050565b600082601f83011215156129b557600080fd5b81356129c86129c3826134ac565b61347f565b915080825260208301602083018583830111156129e457600080fd5b6129ef8382846135c1565b50505092915050565b6000612a0482356135b7565b905092915050565b600060208284031215612a1e57600080fd5b6000612a2c8482850161298e565b91505092915050565b600060208284031215612a4757600080fd5b600082013567ffffffffffffffff811115612a6157600080fd5b612a6d848285016129a2565b91505092915050565b600080600080600080600060e0888a031215612a9157600080fd5b600088013567ffffffffffffffff811115612aab57600080fd5b612ab78a828b016129a2565b975050602088013567ffffffffffffffff811115612ad457600080fd5b612ae08a828b016129a2565b965050604088013567ffffffffffffffff811115612afd57600080fd5b612b098a828b016129a2565b955050606088013567ffffffffffffffff811115612b2657600080fd5b612b328a828b016129a2565b945050608088013567ffffffffffffffff811115612b4f57600080fd5b612b5b8a828b016129a2565b93505060a088013567ffffffffffffffff811115612b7857600080fd5b612b848a828b016129a2565b92505060c0612b958a828b016129f8565b91505092959891949750929550565b60008060008060808587031215612bba57600080fd5b600085013567ffffffffffffffff811115612bd457600080fd5b612be0878288016129a2565b945050602085013567ffffffffffffffff811115612bfd57600080fd5b612c09878288016129a2565b935050604085013567ffffffffffffffff811115612c2657600080fd5b612c32878288016129a2565b9250506060612c43878288016129f8565b91505092959194509250565b600060208284031215612c6157600080fd5b6000612c6f848285016129f8565b91505092915050565b612c818161355d565b82525050565b6000612c92826134ff565b80845260208401935083602082028501612cab856134d8565b60005b84811015612ce4578383038852612cc6838351612e03565b9250612cd182613536565b9150602088019750600181019050612cae565b508196508694505050505092915050565b6000612d008261350a565b80845260208401935083602082028501612d19856134e5565b60005b84811015612d52578383038852612d34838351612fb0565b9250612d3f82613543565b9150602088019750600181019050612d1c565b508196508694505050505092915050565b6000612d6e82613515565b808452602084019350612d80836134f2565b60005b82811015612db257612d968683516130ba565b612d9f82613550565b9150602086019550600181019050612d83565b50849250505092915050565b612dc78161356f565b82525050565b6000612dd88261352b565b808452612dec8160208601602086016135d0565b612df581613603565b602085010191505092915050565b6000612e0e82613520565b808452612e228160208601602086016135d0565b612e2b81613603565b602085010191505092915050565b6000602682527f4f776e61626c653a206e6577206f776e657220697320746865207a65726f206160208301527f64647265737300000000000000000000000000000000000000000000000000006040830152606082019050919050565b6000601b82527f536166654d6174683a206164646974696f6e206f766572666c6f7700000000006020830152604082019050919050565b6000602082527f4f776e61626c653a2063616c6c6572206973206e6f7420746865206f776e65726020830152604082019050919050565b600060c0830160008301518482036000860152612f218282612e03565b91505060208301518482036020860152612f3b8282612e03565b91505060408301518482036040860152612f558282612e03565b91505060608301518482036060860152612f6f8282612e03565b91505060808301518482036080860152612f898282612e03565b91505060a083015184820360a0860152612fa38282612e03565b9150508091505092915050565b600060c0830160008301518482036000860152612fcd8282612e03565b91505060208301518482036020860152612fe78282612e03565b915050604083015184820360408601526130018282612e03565b9150506060830151848203606086015261301b8282612e03565b915050608083015184820360808601526130358282612e03565b91505060a083015184820360a086015261304f8282612e03565b9150508091505092915050565b600060608301600083015184820360008601526130798282612e03565b915050602083015184820360208601526130938282612e03565b915050604083015184820360408601526130ad8282612e03565b9150508091505092915050565b6130c38161359b565b82525050565b60006020820190506130de6000830184612c78565b92915050565b600060208201905081810360008301526130fe8184612c87565b905092915050565b600060208201905081810360008301526131208184612cf5565b905092915050565b600060208201905081810360008301526131428184612d63565b905092915050565b600060208201905061315f6000830184612dbe565b92915050565b6000602082019050818103600083015261317f8184612e03565b905092915050565b600060208201905081810360008301526131a18184612dcd565b905092915050565b60006101008201905081810360008301526131c4818b612dcd565b905081810360208301526131d8818a612dcd565b905081810360408301526131ec8189612dcd565b905081810360608301526132008188612dcd565b905081810360808301526132148187612dcd565b905081810360a08301526132288186612dcd565b905061323760c08301856130ba565b61324460e08301846130ba565b9998505050505050505050565b600060a082019050818103600083015261326b8188612dcd565b9050818103602083015261327f8187612dcd565b905081810360408301526132938186612dcd565b90506132a260608301856130ba565b6132af60808301846130ba565b9695505050505050565b600060408201905081810360008301526132d38185612dcd565b90506132e260208301846130ba565b9392505050565b600060608201905081810360008301526133038186612e03565b905081810360208301526133178185612e03565b9050818103604083015261332b8184612e03565b9050949350505050565b600060c082019050818103600083015261334f8189612e03565b905081810360208301526133638188612e03565b905081810360408301526133778187612e03565b9050818103606083015261338b8186612e03565b9050818103608083015261339f8185612e03565b905081810360a08301526133b38184612e03565b9050979650505050505050565b600060208201905081810360008301526133d981612e39565b9050919050565b600060208201905081810360008301526133f981612e96565b9050919050565b6000602082019050818103600083015261341981612ecd565b9050919050565b6000602082019050818103600083015261343a8184612f04565b905092915050565b6000602082019050818103600083015261345c818461305c565b905092915050565b600060208201905061347960008301846130ba565b92915050565b6000604051905081810181811067ffffffffffffffff821117156134a257600080fd5b8060405250919050565b600067ffffffffffffffff8211156134c357600080fd5b601f19601f8301169050602081019050919050565b6000602082019050919050565b6000602082019050919050565b6000602082019050919050565b600081519050919050565b600081519050919050565b600081519050919050565b600081519050919050565b600081519050919050565b6000602082019050919050565b6000602082019050919050565b6000602082019050919050565b60006135688261357b565b9050919050565b60008115159050919050565b600073ffffffffffffffffffffffffffffffffffffffff82169050919050565b6000819050919050565b60006135b08261357b565b9050919050565b6000819050919050565b82818337600083830152505050565b60005b838110156135ee5780820151818401526020810190506135d3565b838111156135fd576000848401525b50505050565b6000601f19601f830116905091905056fea265627a7a72305820951b847157a095332abdbf3783a812c790c0f8285709e0c36ec545110f70065d6c6578706572696d656e74616cf50037",
  "source": "pragma solidity >=0.4.21 <0.7.0;\npragma experimental ABIEncoderV2;\n\nimport \"../node_modules/openzeppelin-solidity/contracts/math/SafeMath.sol\";\nimport '../node_modules/openzeppelin-solidity/contracts/ownership/Ownable.sol';\n\ncontract PriorIncidents is Ownable {\n\n    using SafeMath for uint256;\n\n    struct Location {\n        string streetNumber;\n        string street;\n        string city;\n        string state;\n        string zipCode;\n        string storeNumber;\n    }\n\n    struct PriorIncident {\n        string date;\n        string fallType;\n        string attorneyName;\n    }\n\n    PriorIncident[] public priorIncidents;\n    Location[] public locations;\n    string[] public listCompanies;\n    mapping (uint => string) public companies;\n    mapping (uint => uint) companyLocationCount;\n    mapping (uint => uint) companyIncidentCount;\n    mapping (uint => uint) incidentToLocation;\n    mapping (uint => uint) locationToCompany;\n    mapping (uint => uint) locationIncidentCount;\n\n    event createdCompany(string name, uint id);\n    event createdLocation(  string streetNumber,\n                            string street,\n                            string city,\n                            string state,\n                            string zipCode,\n                            string storeNumber,\n                            uint companyId, uint id\n                        );\n    event createdPriorIncident(string date, string fallType, string attorneyName, uint locationId, uint id);\n\n    function createCompany(string memory _name) public {\n        uint id = listCompanies.push(_name) - 1;\n        companies[id] = _name;\n        emit createdCompany(_name, id);\n    }\n\n    function createLocation(string memory _streetNumber,\n                            string memory _street,\n                            string memory _city,\n                            string memory _state,\n                            string memory _zipCode,\n                            string memory _storeNumber,\n                            uint _companyId\n    ) public {\n        uint locationId = locations.push(Location(_streetNumber, _street, _city, _state, _zipCode, _storeNumber)) - 1;\n        companyLocationCount[_companyId] = companyLocationCount[_companyId].add(1);\n        locationToCompany[locationId] = _companyId;\n        emit createdLocation(_streetNumber, _street, _city, _state, _zipCode, _storeNumber, _companyId, locationId);\n    }\n\n    function createPriorIncident(string memory _date,\n                                string  memory _fallType,\n                                string  memory _attorneyName,\n                                uint    _locationId\n    ) public {\n        uint incidentId = priorIncidents.push(PriorIncident(_date, _fallType, _attorneyName)) - 1;\n        uint companyId = locationToCompany[_locationId];\n        companyIncidentCount[companyId] = companyIncidentCount[companyId].add(1);\n        incidentToLocation[incidentId] = _locationId;\n        locationIncidentCount[_locationId] = locationIncidentCount[_locationId].add(1);\n        emit createdPriorIncident(_date, _fallType, _attorneyName, _locationId, incidentId);\n    }\n\n    function getLocationsByCompany(uint _companyId) public view returns (uint[] memory) {\n        uint[] memory result = new uint[](companyLocationCount[_companyId]);\n        uint counter = 0;\n        for (uint i = 0; i < locations.length; i++) {\n            if (locationToCompany[i] == _companyId) {\n                result[counter] = i;\n                counter = counter.add(1);\n            }\n        }\n        return result;\n    }\n\n    function getPriorIncidentsByLocation(uint _locationId) public view returns (uint[] memory) {\n        uint[] memory result = new uint[](locationIncidentCount[_locationId]);\n        uint counter = 0;\n        for (uint i = 0; i < priorIncidents.length; i++) {\n            if (incidentToLocation[i] == _locationId) {\n                result[counter] = i;\n                counter = counter.add(1);\n            }\n        }\n        return result;\n    }\n\n    function getPriorIncidentsByCompany(uint _companyId) public view returns (uint[] memory) {\n        uint[] memory result = new uint[](companyIncidentCount[_companyId]);\n        uint counter = 0;\n        for (uint i = 0; i < priorIncidents.length; i++) {\n            if (locationToCompany[incidentToLocation[i]] == _companyId) {\n                result[counter] = i;\n                counter = counter.add(1);\n            }\n        }\n        return result;\n    }\n    function getLocations() public view returns (Location[] memory) {\n        return locations;\n    }\n\n    function getCompanyLocationCount(uint _companyId) public view returns (uint) {\n        return companyLocationCount[_companyId];\n    }\n    function getLocationByIndex(uint _locationId) public view returns (Location memory) {\n        return locations[_locationId];\n    }\n\n    function getNumIncidentsByCompany(uint _companyId) public view returns (uint) {\n        return companyIncidentCount[_companyId];\n    }\n\n    function getNumIncidentsByLocation(uint _locationId) public view returns (uint) {\n        return locationIncidentCount[_locationId];\n    }\n\n    function getLocationByIncident(uint _incidentId) public view returns (uint) {\n        return incidentToLocation[_incidentId];\n    }\n\n    function getPriorIncidentByIndex(uint _incidentId) public view returns (PriorIncident memory) {\n        return priorIncidents[_incidentId];\n    }\n\n    function listAllCompanies() public view returns (string[] memory) {\n        return listCompanies;\n    }\n\n    function getCompany(uint _companyId) public view returns (string memory) {\n        return listCompanies[_companyId];\n    }\n\n\n    function getCompanyByPriorIncident(uint _incidentId) public view returns (string memory) {\n        uint locationId = incidentToLocation[_incidentId];\n        return companies[locationToCompany[locationId]];\n    }\n\n    function getLocationByPriorIncident(uint _incidentId) public view returns (Location memory) {\n        uint locationId = incidentToLocation[_incidentId];\n        return locations[locationId];\n    }\n\n}",
  "sourcePath": "/home/charles/Desktop/PriorIncidents/contracts/PriorIncidents.sol",
  "compiler": {
    "name": "solc",
    "version": "0.5.2+commit.1df8f40c.Emscripten.clang"
  },
  "schemaVersion": "3.0.23",
  "updatedAt": "2020-04-10T02:30:57.961Z",
  "networkType": "ethereum",
  "devdoc": {
    "methods": {
      "isOwner()": {
        "details": "Returns true if the caller is the current owner."
      },
      "owner()": {
        "details": "Returns the address of the current owner."
      },
      "renounceOwnership()": {
        "details": "Leaves the contract without owner. It will not be possible to call `onlyOwner` functions anymore. Can only be called by the current owner.     * NOTE: Renouncing ownership will leave the contract without an owner, thereby removing any functionality that is only available to the owner."
      },
      "transferOwnership(address)": {
        "details": "Transfers ownership of the contract to a new account (`newOwner`). Can only be called by the current owner."
      }
    }
  },
  "userdoc": {
    "methods": {}
  }
}